:020000040800F2
:10000000000002200504000881030008890300089D
:100010009103000899030008A103000800000000F4
:10002000000000000000000000000000A90300081C
:10003000B703000800000000C5030008D303000850
:10004000550400085504000855040008550400082C
:10005000550400085504000855040008550400081C
:10006000550400085504000855040008550400080C
:1000700055040008550400085504000855040008FC
:1000800055040008550400085504000855040008EC
:1000900055040008550400085504000855040008DC
:1000A00055040008550400085504000855040008CC
:1000B00055040008550400085504000855040008BC
:1000C00055040008550400085504000855040008AC
:1000D000550400085504000855040008550400089C
:1000E000550400085504000855040008550400088C
:1000F000550400085504000855040008550400087C
:10010000550400085504000855040008550400086B
:10011000550400085504000855040008550400085B
:10012000550400085504000855040008550400084B
:1001300055040008000000000000000055040008FD
:10014000550400085504000855040008550400082B
:10015000550400085504000855040008550400081B
:10016000550400085504000855040008550400080B
:10017000550400085504000855040008000000005C
:10018000000000005504000800000000000000000E
:10019000550400080000000000000000550400089D
:1001A00000000000000000000000000055040008EE
:1001B00055040008550400085504000855040008BB
:0401C00055040008DA
:1001C40010B5054C237833B9044B13B10448AFF38D
:1001D40000800123237010BD0400002000000000F3
:1001E400C804000808B5034B1BB103490348AFF327
:1001F400008008BD0000000008000020C8040008BA
:1002040080B400AF0D4B1B6C0C4A43F00103136424
:100214004FF080430F229A624FF0804301225A61CB
:100224004FF080431B694FF0804223F001031361B8
:1002340000BFBD465DF8047B704700BF0038024034
:1002440080B483B000AF0346FB80FB885A1E4FF096
:100254008043DA624FF0804300225A624FF08043B9
:100264001B694FF0804223F0010313614FF0804378
:100274001B684FF0804243F00103136000BF4FF04E
:1002840080431B6903F00103002BF8D04FF0804337
:100294001B694FF0804223F0010313614FF0804348
:1002A4001B684FF0804223F00103136000BF0C373A
:1002B400BD465DF8047B704780B582B000AF03464D
:1002C400FB8003E04FF47A70FFF7BAFFFB885A1EF5
:1002D400FA80002BF6D100BF00BF0837BD4680BDB1
:1002E40080B400AF144B1B6B134A43F00103136338
:1002F400124B1B68114A23F4406313600F4B1B68B5
:100304000E4A43F4806313600C4B5B680B4A23F082
:1003140020035360094B9B68084A23F440639360AD
:10032400064BDB68054A23F44063D36000BFBD4637
:100334005DF8047B704700BF0038024000000240B3
:1003440080B500AFFFF7CCFFFFF75AFFC820FFF7D7
:10035400B3FF094B9B69084A43F0200393614FF4B0
:100364007A70FFF7A9FF044B9B69034A43F4001317
:10037400936100BFEAE700BF0000024080B400AF11
:1003840000BFFDE780B400AF00BFFDE780B400AF5D
:1003940000BFFDE780B400AF00BFFDE780B400AF4D
:1003A40000BFFDE780B400AF00BFBD465DF8047B2D
:1003B400704780B400AF00BFBD465DF8047B704752
:1003C40080B400AF00BFBD465DF8047B704780B5C4
:1003D40000AF00F03FF800BF80BD000080B400AF64
:1003E400064BD3F88830054A43F47003C2F88830CA
:1003F40000BFBD465DF8047B704700BF00ED00E020
:10040400DFF834D0FFF7EAFF0C480D490D4A00230A
:1004140002E0D458C4500433C4188C42F9D30A4AB5
:100424000A4C002301E013600432A242FBD300F023
:1004340025F8FFF785FF7047000002200000002028
:1004440004000020E8040008040000202400002028
:10045400FEE7000080B400AF064B1B781A46064B3B
:100464001B681344044A136000BFBD465DF8047B57
:10047400704700BF000000202000002070B50D4B25
:100484000D4D5B1B9C100026A64209D100F01AF802
:100494000A4D0B4B5B1B9C100026A64205D170BD78
:1004A40055F8043B98470136EEE755F8043B984766
:1004B4000136F2E7E0040008E0040008E004000864
:1004C400E4040008F8B500BFF8BC08BC9E467047B9
:0C04D400F8B500BFF8BC08BC9E4670479D
:0404E000E901000826
:0404E400C501000846
:0404E800010000000F
:0400000508000405E6
:00000001FF
