:020000040800F2
:10000000000002202D080008A9070008B107000819
:10001000B9070008C1070008C90700080000000070
:10002000000000000000000000000000D1070008F0
:10003000DF07000800000000ED070008FB070008CC
:100040007D0800087D0800087D0800087D0800087C
:100050007D0800087D0800087D0800087D0800086C
:100060007D0800087D0800087D0800087D0800085C
:100070007D0800087D0800087D0800087D0800084C
:100080007D0800087D0800087D0800087D0800083C
:100090007D0800087D0800087D0800087D0800082C
:1000A0007D0800087D0800087D0800087D0800081C
:1000B0007D0800087D0800087D0800087D0800080C
:1000C0007D0800087D0800087D0800087D080008FC
:1000D0007D0800087D0800087D0800087D080008EC
:1000E0007D0800087D0800087D0800087D080008DC
:1000F0007D0800087D0800087D0800087D080008CC
:100100007D0800087D0800087D0800087D080008BB
:100110007D0800087D0800087D0800087D080008AB
:100120007D0800087D0800087D0800087D0800089B
:100130007D08000800000000000000007D080008A5
:100140007D0800087D0800087D0800087D0800087B
:100150007D0800087D0800087D0800087D0800086B
:100160007D0800087D0800087D0800087D0800085B
:100170007D0800087D0800087D08000800000000D8
:10018000000000007D0800080000000000000000E2
:100190007D08000800000000000000007D08000845
:1001A0000000000000000000000000007D080008C2
:1001B0007D0800087D0800087D0800087D0800080B
:0401C0007D080008AE
:1001C40010B5054C237833B9044B13B10448AFF38D
:1001D40000800123237010BD1000002000000000E7
:1001E400E415000808B5034B1BB103490348AFF3FA
:1001F400008008BD0000000014000020E415000881
:1002040053B94AB9002908BF00281CBF4FF0FF3179
:100214004FF0FF3000F088B9ADF1080C6DE904CE61
:1002240000F006F8DDF804E0DDE9022304B07047CD
:100234002DE9F047089D8E4604468846002B4AD196
:100244008A42174662D9B2FA82F64EB1C6F1200349
:1002540001FA06F820FA03F3B74043EA0808B44069
:100264004FEA174E1FFA87FCB8FBFEF1230C0EFB76
:10027400118843EA084301FB0CF29A4209D9FB189E
:1002840001F1FF3080F0EA809A4240F2E7800239BF
:100294003B449A1AA3B2B2FBFEF00EFB102243EACF
:1002A400024300FB0CFC9C4509D9FB1800F1FF320A
:1002B40080F0D6809C4540F2D3803B44023840EA2B
:1002C4000140A3EB0C0300211DB1F3400022C5E95A
:1002D4000032BDE8F0878B4205D90DB1C5E90001B4
:1002E40000210846F5E7B3FA83F1002946D17345A6
:1002F40002D3824200F20581841A6EEB03020120CC
:100304009046002DE5D0C5E90048E2E7002A00F058
:100314009080B2FA82F6002E40F0A4808A1A030C70
:100324004FEA174E80B2BCB20121B2FBFEFC0EFBB9
:100334001C2243EA024304FB0CF29A4207D9FB183D
:100344000CF1FF3802D29A4200F2E080C4469B1AB4
:10035400B3FBFEF20EFB123340EA034302FB04F448
:100364009C4207D9FB1802F1FF3002D29C4200F2F2
:10037400CA8002461B1B42EA0C40A5E7C1F12006D5
:100384008B4022FA06F71F430EFA01F420FA06F313
:100394002EFA06FE4FEA1749234300FA01F81FFA22
:1003A40087FCBEFBF9F01C0C09FB10EE44EA0E447A
:1003B40000FB0CFEA64502FA01F209D93C1900F132
:1003C400FF3A80F09C80A64540F2998002383C4474
:1003D400A4EB0E041FFA83FEB4FBF9F309FB1344E8
:1003E4004EEA044403FB0CFCA44508D93C1903F170
:1003F400FF3E80F08280A4457FD9023B3C4443EA1F
:100404000040A4EB0C04A0FB02EC64457346E146F7
:1004140062D35FD05DB1B8EB030264EB090404FA64
:1004240006F622FA01F31E43CC40C5E9006400211C
:100434004FE7B1FBF2FC010C41EA0E4180B240EA05
:1004440001423B4638463C46B846BE462026B1FBF0
:10045400F7F1A2EB080241EA0C4166E7014618E70E
:1004640010462CE7C6F120022EFA02F3B740B14041
:1004740020FA02F24FEA174E0A43B3FBFEF8BCB26D
:100484000EFB1833110C41EA034108FB04F9B04098
:1004940089454FEA104380B23ED9791808F1FF3CF0
:1004A40001D289451FD8A1EB0901B1FBFEF909FB73
:1004B40004F80EFB191192B242EA0142424529D2D4
:1004C400BA1809F1FF31C4D24245C2D2A9F10201DE
:1004D4003A44BEE7F0459DD2BEEB02036CEB070C39
:1004E4000138E14696E7A7EB09094944A8F1020C53
:1004F400B1FBFEF909FB04F8DBE773467FE75046DE
:1005040066E70846FDE63B44023A33E7ACF1020CE9
:100514003B441CE749469CE7A1EB0901C446B1FBF7
:10052400FEF909FB04F8C4E7704700BF80B400AFCC
:10053400204B1B6B1F4A43F0010313631D4B1B6BC2
:100544001C4A43F0040313631B4B1B681A4A23F42D
:1005540040631360184B1B68174A43F480631360AD
:10056400154B5B68144A23F020035360124B9B68BD
:10057400114A23F4406393600F4BDB680E4A23F463
:100584004063D3600D4B1B680C4A23F04063136037
:100594000A4BDB68094A23F04063D360074BDB68EE
:1005A400064A43F08063D36000BFBD465DF8047B18
:1005B400704700BF003802400000024000080240BB
:1005C40080B500AF00F05AF900F05EF8FFF7AEFF17
:1005D400264B1B6903F40053002B2FD1244B1B78AB
:1005E400DBB2002BF4D1234B1A68234B1B689A42CD
:1005F4001BD9224B1B78DBB2002B09D11F4B0122E4
:100604001A701F4B9B691E4A43F02003936108E054
:100614001A4B00221A701A4B9B69194A43F40013AF
:100624009361134B01221A70D2E7124B1B680133FA
:10063400104A1360134B00221A60C9E70C4B1B7855
:10064400DBB2012BC4D10F4B1A680B4B1B689A42C7
:1006540003D9074B00221A70BAE70A4B1B6801330F
:10066400084A1360034B00221A60B1E700080240F5
:100674002C00002030000020000000203800002062
:10068400000002403400002080B594B000AF07F1B0
:100694001C0334220021184600F076FF07F10803FA
:1006A40000221A605A609A60DA601A6100237B6043
:1006B400234B1B6C224A43F080531364204B1B6C66
:1006C40003F080537B607B6800233B601D4B1B68F9
:1006D40023F440431B4A43F480431360194B1B68C3
:1006E40003F440433B603B680223FB610123BB628C
:1006F4001023FB6200237B6307F11C03184600F000
:10070400A5FC0346002B01D000F01EF80F23BB60AC
:100714000023FB6000233B6100237B610023BB615A
:1007240007F108030021184600F000FA0346002BE5
:1007340001D000F009F800BF5037BD4680BD00BFAE
:10074400003802400070004080B400AF72B600BFB1
:1007540000BFFDE780B483B000AF00237B60104B83
:100764005B6C0F4A43F4804353640D4B5B6C03F49E
:1007740080437B607B6800233B60094B1B6C084A09
:1007840043F080531364064B1B6C03F080533B60AF
:100794003B6800BF0C37BD465DF8047B704700BF63
:1007A4000038024080B400AF00BFFDE780B400AF62
:1007B40000BFFDE780B400AF00BFFDE780B400AF29
:1007C40000BFFDE780B400AF00BFFDE780B400AF19
:1007D40000BFBD465DF8047B704780B400AF00BF26
:1007E400BD465DF8047B704780B400AF00BFBD46D2
:1007F4005DF8047B704780B500AF00F091F800BF4E
:1008040080BD000080B400AF064BD3F88830054AA1
:1008140043F47003C2F8883000BFBD465DF8047B22
:10082400704700BF00ED00E0DFF834D0FFF7EAFFC7
:100834000C480D490D4A002302E0D458C450043337
:10084400C4188C42F9D30A4A0A4C002301E013600D
:100854000432A242FBD300F09FFEFFF7B1FE7047C3
:100864000000022000000020100000201C160008D8
:100874001000002040000020FEE7000080B500AF1B
:100884000E4B1B680D4A43F4007313600B4B1B683B
:100894000A4A43F480631360084B1B68074A43F415
:1008A40080731360032000F00DF90F2000F008F8A6
:1008B400FFF750FF0023184680BD00BF003C0240F4
:1008C40080B582B000AF7860124B1A68124B1B7867
:1008D40019464FF47A73B3FBF1F3B2FBF3F3184602
:1008E40000F017F90346002B01D001230EE07B68CA
:1008F4000F2B0AD8002279684FF0FF3000F0EDF892
:10090400064A7B681360002300E001231846083779
:10091400BD4680BD040000200C000020080000201B
:1009240080B400AF064B1B781A46064B1B68134471
:10093400044A136000BFBD465DF8047B704700BFE6
:100944000C0000203C00002080B400AF034B1B6867
:100954001846BD465DF8047B704700BF3C0000208C
:1009640080B485B000AF78607B6803F00703FB6058
:100974000C4BDB68BB60BA684FF6FF031340BB60E7
:10098400FB681A02BB68134343F0BF6343F40033AC
:10099400BB60044ABB68D36000BF1437BD465DF832
:1009A400047B704700ED00E080B400AF044BDB68CB
:1009B4001B0A03F007031846BD465DF8047B704725
:1009C40000ED00E080B483B000AF03463960FB71F2
:1009D40097F90730002B0ADB3B68DAB20C4997F928
:1009E40007301201D2B20B4483F800230AE03B68BB
:1009F400DAB20849FB7903F00F03043B1201D2B2C7
:100A04000B441A7600BF0C37BD465DF8047B704773
:100A140000E100E000ED00E080B489B000AFF860D0
:100A2400B9607A60FB6803F00703FB61FB69C3F1FB
:100A34000703042B28BF0423BB61FB690433062B83
:100A440002D9FB69033B00E000237B614FF0FF32D6
:100A5400BB6902FA03F3DA43BB681A407B699A4024
:100A64004FF0FF317B6901FA03F3D9437B680B40F4
:100A7400134318462437BD465DF8047B70470000D5
:100A840080B582B000AF78607B68013BB3F1807FB2
:100A940001D301230FE00A4A7B68013B53600F2115
:100AA4004FF0FF30FFF78EFF054B00229A60044B96
:100AB40007221A60002318460837BD4680BD00BFD0
:100AC40010E000E080B582B000AF78607868FFF78E
:100AD40047FF00BF0837BD4680BD80B586B000AF74
:100AE4000346B9607A60FB7300237B61FFF75CFF08
:100AF40078617A68B9687869FFF78EFF024697F9DA
:100B04000F3011461846FFF75DFF00BF1837BD468A
:100B140080BD80B582B000AF78607868FFF7B0FF21
:100B2400034618460837BD4680BD000080B584B032
:100B340000AF786039607B68002B01D10123CCE0E1
:100B4400684B1B6803F00F033A689A420CD9654B53
:100B54003A68D2B21A70634B1B6803F00F033A6809
:100B64009A4201D00123B8E07B681B6803F00203BA
:100B7400002B20D07B681B6803F00403002B05D0F6
:100B8400594B9B68584A43F4E05393607B681B6855
:100B940003F00803002B05D0534B9B68524A43F4DF
:100BA40060439360504B9B6823F0F0027B689B6822
:100BB4004D4913438B607B681B6803F00103002BD2
:100BC40044D07B685B68012B07D1474B1B6803F457
:100BD4000033002B19D101237FE07B685B68022B73
:100BE40003D07B685B68032B07D13F4B1B6803F082
:100BF4000073002B09D101236FE03B4B1B6803F00A
:100C04000203002B01D1012367E0374B9B6823F0DB
:100C140003027B685B68344913438B60FFF794FEDF
:100C2400F8600AE0FFF790FE0246FB68D31A41F22F
:100C34008832934201D903234FE02B4B9B6803F086
:100C44000C027B685B689B009A42EBD1254B1B68C6
:100C540003F00F033A689A420CD2224B3A68D2B29C
:100C64001A70204B1B6803F00F033A689A4201D0B4
:100C7400012332E07B681B6803F00403002B08D0D7
:100C8400194B9B6823F4E0527B68DB6816491343D5
:100C94008B607B681B6803F00803002B09D0124BA0
:100CA4009B6823F460427B681B69DB000E49134395
:100CB4008B6000F021F802460B4B9B681B0903F084
:100CC4000F030A49CB5C22FA03F3094A1360094B68
:100CD4001B681846FFF7F4FD002318461037BD467D
:100CE40080BD00BF003C024000380240FC150008F3
:100CF40004000020080000202DE9B04FA6B000AF8A
:100D04000023C7F88C300023C7F894300023C7F8B9
:100D140088300023C7F884300023C7F89030C84BCC
:100D24009B6803F00C030C2B00F27E8101A252F8A5
:100D340023F000BF6D0D00082D1000082D100008D1
:100D44002D100008750D00082D1000082D10000846
:100D54002D1000087D0D00082D1000082D1000082E
:100D64002D100008E70E0008B64BC7F890305FE17D
:100D7400B54BC7F890305BE1B14B5B6803F03F03C0
:100D8400C7F88C30AE4B5B6803F48003002B31D082
:100D9400AB4B5B689B090022BB66FA66BB6EC3F370
:100DA40008033B6600237B66A74BD7E918452A4610
:100DB40003FB02F20023214601FB03F31344A24A7E
:100DC4002146A1FB0212FA670A46BA67FA6F134476
:100DD400FB67D7F88C300022BB65FA65D7E9162388
:100DE400D7E91E01FFF70CFA02460B461346C7F873
:100DF400943064E0924B5B689B0900223B657A6502
:100E04003B6DC3F30803BB640023FB64D7E91245BD
:100E140022462B464FF000004FF00001590141EAF1
:100E2400D261500102460B462146511A39612946C6
:100E340063EB01037B614FF000024FF00003D7E93D
:100E440004AB59468B01514643EA916351468A01EA
:100E54005146B2EB0108594663EB01094FF0000219
:100E64004FF000034FEAC90343EA58734FEAC8023C
:100E740090469946234618EB0303BB602B4649EB87
:100E84000303FB604FF000024FF00003D7E9024573
:100E940029468B02214643EA915321468A02104691
:100EA4001946D7F88C3000223B647A64D7E91023C2
:100EB400FFF7A6F902460B461346C7F89430604B79
:100EC4005B681B0C03F0030301335B00C7F8883035
:100ED400D7F89420D7F88830B2FBF3F3C7F89030F2
:100EE400A6E0574B5B6803F03F03C7F88C30544BC4
:100EF4005B6803F48003002B2AD0514B5B689B0989
:100F04000022BB63FA63BB6BC3F3080000214E4BA2
:100F140003FB01F2002300FB03F313444A4AA0FB42
:100F240002127A670A463A677A6F13447B67D7F8E6
:100F34008C3000223B637A63D7E90C23D7E91C0188
:100F4400FFF75EF902460B461346C7F894305BE0A0
:100F54003B4B5B689B090022BB62FA62BB6AC3F32A
:100F640008033B6200237B62D7E9088942464B466B
:100F74004FF000004FF00001590141EAD2615001E5
:100F840002460B464146B2EB010A494663EB010BAC
:100F94004FF000024FF000034FEA8B1343EA9A63C9
:100FA4004FEA8A12B2EB0A0463EB0B054FF000021E
:100FB4004FF00003EB0043EA5473E20014461D466D
:100FC4004346E3183B604B4645EB03037B604FF01D
:100FD40000024FF00003D7E9004529468B02214661
:100FE40043EA915321468A0210461946D7F88C30B9
:100FF4000022BB61FA61D7E90623FFF701F9024633
:101004000B461346C7F894300D4B5B681B0F03F077
:101014000703C7F88430D7F89420D7F88430B2FB9C
:10102400F3F3C7F8903003E0064BC7F8903000BFE5
:10103400D7F8903018469837BD46BDE8B08F00BF4A
:10104400003802400024F40040787D0180B586B069
:1010540000AF78607B68002B01D101238DE27B68AF
:101064001B6803F00103002B00F08380944B9B6802
:1010740003F00C03042B19D0914B9B6803F00C0371
:10108400082B06D18E4B5B6803F48003B3F5800F05
:101094000CD08B4B9B6803F00C030C2B12D1884BA8
:1010A4005B6803F48003B3F5800F0BD1844B1B689A
:1010B40003F40033002B5BD07B685B68002B57D1B3
:1010C40001235AE27B685B68B3F5803F06D17C4B11
:1010D4001B687B4A43F4803313601DE07B685B68C4
:1010E400B3F5A02F0CD1764B1B68754A43F48023CB
:1010F4001360734B1B68724A43F4803313600BE034
:101104006F4B1B686E4A23F4803313606C4B1B686F
:101114006B4A23F4802313607B685B68002B13D035
:10112400FFF712FC386108E0FFF70EFC02463B694A
:10113400D31A642B01D903231FE2614B1B6803F408
:101144000033002BF0D014E0FFF7FEFB386108E019
:10115400FFF7FAFB02463B69D31A642B01D9032338
:101164000BE2574B1B6803F40033002BF0D100E073
:1011740000BF7B681B6803F00203002B6FD0504B49
:101184009B6803F00C03002B17D04D4B9B6803F0B6
:101194000C03082B05D14A4B5B6803F48003002B36
:1011A4000BD0474B9B6803F00C030C2B1CD1444B16
:1011B4005B6803F48003002B16D1414B1B6803F0DA
:1011C4000203002B05D07B68DB68012B01D00123CF
:1011D400D3E13B4B1B6823F0F8027B681B69DB00FF
:1011E400374913430B603AE07B68DB68002B20D05F
:1011F400344B01221A60FFF7A7FB386108E0FFF7C0
:10120400A3FB02463B69D31A022B01D90323B4E1A1
:101214002B4B1B6803F00203002BF0D0284B1B68F8
:1012240023F0F8027B681B69DB00254913430B603C
:1012340015E0244B00221A60FFF786FB386108E0B2
:10124400FFF782FB02463B69D31A022B01D9032321
:1012540093E11B4B1B6803F00203002BF0D17B6866
:101264001B6803F00803002B36D07B685B69002BF6
:1012740016D0154B01221A60FFF766FB386108E0AF
:10128400FFF762FB02463B69D31A022B01D9032301
:1012940073E10B4B5B6F03F00203002BF0D01BE0F8
:1012A400094B00221A60FFF74FFB38610EE0FFF78D
:1012B4004BFB02463B69D31A022B07D903235CE19B
:1012C4000038024000004742800E47428A4B5B6F61
:1012D40003F00203002BEAD17B681B6803F00403CC
:1012E400002B00F097800023FB75834B1B6C03F0ED
:1012F4008053002B0FD10023BB607F4B1B6C7E4AB5
:1013040043F0805313647C4B1B6C03F08053BB602D
:10131400BB680123FB75794B1B6803F48073002BB6
:1013240018D1764B1B68754A43F480731360FFF73A
:101334000BFB386108E0FFF707FB02463B69D31A51
:10134400022B01D9032318E16C4B1B6803F480734F
:10135400002BF0D07B689B68012B06D1664B1B6F7A
:10136400654A43F0010313671CE07B689B68052B07
:101374000CD1614B1B6F604A43F0040313675E4B4F
:101384001B6F5D4A43F0010313670BE05A4B1B6F5D
:10139400594A23F001031367574B1B6F564A23F036
:1013A400040313677B689B68002B15D0FFF7CCFA06
:1013B40038610AE0FFF7C8FA02463B69D31A41F2E2
:1013C4008832934201D90323D7E04B4B1B6F03F0C0
:1013D4000203002BEED014E0FFF7B6FA38610AE0FE
:1013E400FFF7B2FA02463B69D31A41F288329342BC
:1013F40001D90323C1E0404B1B6F03F00203002B10
:10140400EED1FB7D012B05D13B4B1B6C3A4A23F0FB
:10141400805313647B689B69002B00F0AD80364BCE
:101424009B6803F00C03082B60D07B689B69022B3C
:1014340045D1334B00221A60FFF786FA386108E081
:10144400FFF782FA02463B69D31A022B01D9032320
:1014540093E0294B1B6803F00073002BF0D17B68E9
:10146400DA697B681B6A1A437B685B6A9B011A43CF
:101474007B689B6A5B08013B1B041A437B68DB6A3D
:101484001B061A437B681B6B1B071B4913434B60EA
:101494001B4B01221A60FFF757FA386108E0FFF787
:1014A40053FA02463B69D31A022B01D9032364E0A1
:1014B400114B1B6803F00073002BF0D05CE0104B61
:1014C40000221A60FFF740FA386108E0FFF73CFA9F
:1014D40002463B69D31A022B01D903234DE0064B84
:1014E4001B6803F00073002BF0D145E07B689B6917
:1014F400012B07D1012340E0003802400070004076
:10150400600047421F4B5B68FB607B689B69012B53
:1015140030D0FB6803F480027B68DB699A4229D1EE
:10152400FB6803F03F027B681B6A9A4222D1FA6887
:1015340047F6C07313407A68526A9201934219D1F4
:10154400FB6803F440327B689B6A5B08013B1B0425
:101554009A420FD1FB6803F070627B68DB6A1B065A
:101564009A4207D1FB6803F0E0427B681B6B1B07C0
:101574009A4201D0012300E0002318461837BD46E3
:1015840080BD00BF0038024002440346934200D1AC
:10159400704703F8011BF9E770B50D4D0D4C641B42
:1015A400A4100026A64209D10B4D0C4C00F018F8EB
:1015B400641BA4100026A64205D170BD55F8043B57
:1015C40098470136EEE755F8043B98470136F2E7B1
:1015D400141600081416000814160008181600083B
:1015E400F8B500BFF8BC08BC9E467047F8B500BF0C
:0815F400F8BC08BC9E467047DC
:1015FC0000000000000000000102030406070809B7
:08160C0028ECFF7F0100000043
:04161400E9010008E0
:04161800C501000800
:10161C00C80000000024F4001000000001000000CD
:040000050800082DBA
:00000001FF
