:020000040800F2
:1000000000000220610400084102000849020008C3
:1000100051020008590200086102000800000000B7
:10002000000000000000000000000000690200085D
:100030007702000800000000850200089302000813
:10004000B1040008B1040008B1040008B1040008BC
:10005000B1040008B1040008B1040008B1040008AC
:10006000B1040008B1040008B1040008B10400089C
:10007000B1040008B1040008B1040008B10400088C
:10008000B1040008B1040008B1040008B10400087C
:10009000B1040008B1040008B1040008B10400086C
:1000A000B1040008B1040008B1040008B10400085C
:1000B000B1040008B1040008B1040008B10400084C
:1000C000B1040008B1040008B1040008B10400083C
:1000D000B1040008B104000829040008B1040008B4
:1000E000B1040008B1040008B1040008B10400081C
:1000F000B1040008B1040008B1040008B10400080C
:10010000B1040008B1040008B1040008B1040008FB
:10011000B1040008B1040008B1040008B1040008EB
:10012000B1040008B1040008B1040008B1040008DB
:10013000B10400080000000000000000B104000845
:10014000B1040008B1040008B1040008B1040008BB
:10015000B1040008B1040008B1040008B1040008AB
:10016000B1040008B1040008B1040008B10400089B
:10017000B1040008B1040008B10400080000000048
:1001800000000000B10400080000000000000000B2
:10019000B10400080000000000000000B1040008E5
:1001A000000000000000000000000000B104000892
:1001B000B1040008B1040008B1040008B10400084B
:0401C000B10400087E
:1001C40010B5054C237833B9044B13B10448AFF38D
:1001D40000800123237010BD0400002000000000F3
:1001E4002405000808B5034B1BB103490348AFF3CA
:1001F400008008BD0000000008000020240500085D
:1002040080B500AF00F07AF800F0FCF8084800F080
:10021400E3F8084B1B78DBB2002BFAD0064B1B78B3
:10022400DBB2184600F0C0F8024B00221A70F0E767
:100234003C050008210000202000002080B400AF0D
:1002440000BFFDE780B400AF00BFFDE780B400AF9E
:1002540000BFFDE780B400AF00BFFDE780B400AF8E
:1002640000BFFDE780B400AF00BFBD465DF8047B6E
:10027400704780B400AF00BFBD465DF8047B704793
:1002840080B400AF00BFBD465DF8047B704780B505
:1002940000AF00F00DF900BF80BD000080B400AFD6
:1002A400064BD3F88830054A43F47003C2F888300B
:1002B40000BFBD465DF8047B704700BF00ED00E061
:1002C40080B483B000AF0346FB7197F90730002B6D
:1002D4000BDBFB7903F01F02074997F907305B0931
:1002E400012000FA02F241F8232000BF0C37BD467A
:1002F4005DF8047B704700BF00E100E080B400AF0C
:10030400264B1B6B254A43F001031363234B1B6CE1
:10031400224A43F400331364214B1B68204A23F020
:10032400F00313601E4B1B681D4A43F0A0031360C7
:100334001B4B1B6A1A4A23F47F431362184B1B6A34
:10034400174A43F4EE431362154B9B68144A23F097
:10035400F0039360124B9B68114A43F0F0039360DF
:10036400104B0022DA600F4BDB680E4A43F00C039B
:10037400D3600C4BDB680B4A23F48053D360094BE6
:100384008B229A60074BDB68064A43F40053D36020
:1003940000BFBD465DF8047B704700BF00380240D3
:1003A400000002400044004080B483B000AF034624
:1003B400FB7100BF074B1B6803F08003002BF9D0CF
:1003C400044AFB79536000BF0C37BD465DF8047BDB
:1003D400704700BF0044004080B582B000AF786031
:1003E40006E07B685A1C7A601B781846FFF7DCFF2E
:1003F4007B681B78002BF4D100BF00BF0837BD46D3
:1004040080BD000080B500AF054BDB68044A43F0B3
:100414002003D3602620FFF753FF00BF80BD00BF39
:100424000044004080B400AF094B1B6803F0200374
:10043400002B07D0064B5B68DAB2064B1A70064BEA
:1004440001221A7000BFBD465DF8047B704700BFEF
:10045400004400402000002021000020DFF834D0B8
:10046400FFF71CFF0C480D490D4A002302E0D45845
:10047400C4500433C4188C42F9D30A4A0A4C0023EA
:1004840001E013600432A242FBD300F025F8FFF729
:10049400B7FE704700000220000000200400002086
:1004A400540500080400002028000020FEE7000096
:1004B40080B400AF064B1B781A46064B1B681344E6
:1004C400044A136000BFBD465DF8047B704700BF5B
:1004D400000000202400002070B50D4B0D4D5B1B67
:1004E4009C100026A64209D100F01AF80A4D0B4BC5
:1004F4005B1B9C100026A64205D170BD55F8043B39
:1005040098470136EEE755F8043B98470136F2E781
:100514004C0500084C0500084C050008500500086F
:10052400F8B500BFF8BC08BC9E467047F8B500BFDC
:08053400F8BC08BC9E467047AC
:10053C00554152542072656164790D0A0000000027
:04054C00E9010008B9
:04055000C5010008D9
:0405540001000000A2
:04000005080004618A
:00000001FF
